{
  "contractName": "HogwartsNFT",
  "abi": [
    {
      "inputs": [
        {
          "internalType": "address",
          "name": "vrfCoordinatorV2Address",
          "type": "address"
        },
        {
          "internalType": "uint64",
          "name": "subId",
          "type": "uint64"
        },
        {
          "internalType": "bytes32",
          "name": "keyHash",
          "type": "bytes32"
        },
        {
          "internalType": "uint32",
          "name": "callbackGasLimit",
          "type": "uint32"
        }
      ],
      "stateMutability": "nonpayable",
      "type": "constructor"
    },
    {
      "inputs": [],
      "name": "HogwartsNFT__WithdrawalFailed",
      "type": "error"
    },
    {
      "inputs": [
        {
          "internalType": "address",
          "name": "have",
          "type": "address"
        },
        {
          "internalType": "address",
          "name": "want",
          "type": "address"
        }
      ],
      "name": "OnlyCoordinatorCanFulfill",
      "type": "error"
    },
    {
      "anonymous": false,
      "inputs": [
        {
          "indexed": false,
          "internalType": "bool",
          "name": "s_minted",
          "type": "bool"
        },
        {
          "indexed": false,
          "internalType": "enum HogwartsNFT.House",
          "name": "house",
          "type": "uint8"
        }
      ],
      "name": "AlreadyMinted",
      "type": "event"
    },
    {
      "anonymous": false,
      "inputs": [
        {
          "indexed": true,
          "internalType": "address",
          "name": "owner",
          "type": "address"
        },
        {
          "indexed": true,
          "internalType": "address",
          "name": "approved",
          "type": "address"
        },
        {
          "indexed": true,
          "internalType": "uint256",
          "name": "tokenId",
          "type": "uint256"
        }
      ],
      "name": "Approval",
      "type": "event"
    },
    {
      "anonymous": false,
      "inputs": [
        {
          "indexed": true,
          "internalType": "address",
          "name": "owner",
          "type": "address"
        },
        {
          "indexed": true,
          "internalType": "address",
          "name": "operator",
          "type": "address"
        },
        {
          "indexed": false,
          "internalType": "bool",
          "name": "approved",
          "type": "bool"
        }
      ],
      "name": "ApprovalForAll",
      "type": "event"
    },
    {
      "anonymous": false,
      "inputs": [
        {
          "indexed": false,
          "internalType": "uint256",
          "name": "_fromTokenId",
          "type": "uint256"
        },
        {
          "indexed": false,
          "internalType": "uint256",
          "name": "_toTokenId",
          "type": "uint256"
        }
      ],
      "name": "BatchMetadataUpdate",
      "type": "event"
    },
    {
      "anonymous": false,
      "inputs": [
        {
          "indexed": false,
          "internalType": "uint256",
          "name": "_tokenId",
          "type": "uint256"
        }
      ],
      "name": "MetadataUpdate",
      "type": "event"
    },
    {
      "anonymous": false,
      "inputs": [
        {
          "indexed": false,
          "internalType": "enum HogwartsNFT.House",
          "name": "house",
          "type": "uint8"
        },
        {
          "indexed": false,
          "internalType": "address",
          "name": "minter",
          "type": "address"
        }
      ],
      "name": "NftMinted",
      "type": "event"
    },
    {
      "anonymous": false,
      "inputs": [
        {
          "indexed": true,
          "internalType": "uint256",
          "name": "requestId",
          "type": "uint256"
        },
        {
          "indexed": false,
          "internalType": "address",
          "name": "requester",
          "type": "address"
        }
      ],
      "name": "NftRequested",
      "type": "event"
    },
    {
      "anonymous": false,
      "inputs": [
        {
          "indexed": true,
          "internalType": "address",
          "name": "previousOwner",
          "type": "address"
        },
        {
          "indexed": true,
          "internalType": "address",
          "name": "newOwner",
          "type": "address"
        }
      ],
      "name": "OwnershipTransferred",
      "type": "event"
    },
    {
      "anonymous": false,
      "inputs": [
        {
          "indexed": true,
          "internalType": "address",
          "name": "from",
          "type": "address"
        },
        {
          "indexed": true,
          "internalType": "address",
          "name": "to",
          "type": "address"
        },
        {
          "indexed": true,
          "internalType": "uint256",
          "name": "tokenId",
          "type": "uint256"
        }
      ],
      "name": "Transfer",
      "type": "event"
    },
    {
      "inputs": [
        {
          "internalType": "address",
          "name": "to",
          "type": "address"
        },
        {
          "internalType": "uint256",
          "name": "tokenId",
          "type": "uint256"
        }
      ],
      "name": "approve",
      "outputs": [],
      "stateMutability": "nonpayable",
      "type": "function"
    },
    {
      "inputs": [
        {
          "internalType": "address",
          "name": "owner",
          "type": "address"
        }
      ],
      "name": "balanceOf",
      "outputs": [
        {
          "internalType": "uint256",
          "name": "",
          "type": "uint256"
        }
      ],
      "stateMutability": "view",
      "type": "function",
      "constant": true
    },
    {
      "inputs": [
        {
          "internalType": "uint256",
          "name": "tokenId",
          "type": "uint256"
        }
      ],
      "name": "getApproved",
      "outputs": [
        {
          "internalType": "address",
          "name": "",
          "type": "address"
        }
      ],
      "stateMutability": "view",
      "type": "function",
      "constant": true
    },
    {
      "inputs": [
        {
          "internalType": "address",
          "name": "owner",
          "type": "address"
        },
        {
          "internalType": "address",
          "name": "operator",
          "type": "address"
        }
      ],
      "name": "isApprovedForAll",
      "outputs": [
        {
          "internalType": "bool",
          "name": "",
          "type": "bool"
        }
      ],
      "stateMutability": "view",
      "type": "function",
      "constant": true
    },
    {
      "inputs": [],
      "name": "name",
      "outputs": [
        {
          "internalType": "string",
          "name": "",
          "type": "string"
        }
      ],
      "stateMutability": "view",
      "type": "function",
      "constant": true
    },
    {
      "inputs": [],
      "name": "owner",
      "outputs": [
        {
          "internalType": "address",
          "name": "",
          "type": "address"
        }
      ],
      "stateMutability": "view",
      "type": "function",
      "constant": true
    },
    {
      "inputs": [
        {
          "internalType": "uint256",
          "name": "tokenId",
          "type": "uint256"
        }
      ],
      "name": "ownerOf",
      "outputs": [
        {
          "internalType": "address",
          "name": "",
          "type": "address"
        }
      ],
      "stateMutability": "view",
      "type": "function",
      "constant": true
    },
    {
      "inputs": [
        {
          "internalType": "uint256",
          "name": "requestId",
          "type": "uint256"
        },
        {
          "internalType": "uint256[]",
          "name": "randomWords",
          "type": "uint256[]"
        }
      ],
      "name": "rawFulfillRandomWords",
      "outputs": [],
      "stateMutability": "nonpayable",
      "type": "function"
    },
    {
      "inputs": [],
      "name": "renounceOwnership",
      "outputs": [],
      "stateMutability": "nonpayable",
      "type": "function"
    },
    {
      "inputs": [
        {
          "internalType": "address",
          "name": "",
          "type": "address"
        }
      ],
      "name": "s_addressToHouse",
      "outputs": [
        {
          "internalType": "enum HogwartsNFT.House",
          "name": "",
          "type": "uint8"
        }
      ],
      "stateMutability": "view",
      "type": "function",
      "constant": true
    },
    {
      "inputs": [
        {
          "internalType": "uint256",
          "name": "",
          "type": "uint256"
        }
      ],
      "name": "s_requestIdToSender",
      "outputs": [
        {
          "internalType": "address",
          "name": "",
          "type": "address"
        }
      ],
      "stateMutability": "view",
      "type": "function",
      "constant": true
    },
    {
      "inputs": [
        {
          "internalType": "address",
          "name": "from",
          "type": "address"
        },
        {
          "internalType": "address",
          "name": "to",
          "type": "address"
        },
        {
          "internalType": "uint256",
          "name": "tokenId",
          "type": "uint256"
        }
      ],
      "name": "safeTransferFrom",
      "outputs": [],
      "stateMutability": "nonpayable",
      "type": "function"
    },
    {
      "inputs": [
        {
          "internalType": "address",
          "name": "from",
          "type": "address"
        },
        {
          "internalType": "address",
          "name": "to",
          "type": "address"
        },
        {
          "internalType": "uint256",
          "name": "tokenId",
          "type": "uint256"
        },
        {
          "internalType": "bytes",
          "name": "data",
          "type": "bytes"
        }
      ],
      "name": "safeTransferFrom",
      "outputs": [],
      "stateMutability": "nonpayable",
      "type": "function"
    },
    {
      "inputs": [
        {
          "internalType": "address",
          "name": "operator",
          "type": "address"
        },
        {
          "internalType": "bool",
          "name": "approved",
          "type": "bool"
        }
      ],
      "name": "setApprovalForAll",
      "outputs": [],
      "stateMutability": "nonpayable",
      "type": "function"
    },
    {
      "inputs": [
        {
          "internalType": "bytes4",
          "name": "interfaceId",
          "type": "bytes4"
        }
      ],
      "name": "supportsInterface",
      "outputs": [
        {
          "internalType": "bool",
          "name": "",
          "type": "bool"
        }
      ],
      "stateMutability": "view",
      "type": "function",
      "constant": true
    },
    {
      "inputs": [],
      "name": "symbol",
      "outputs": [
        {
          "internalType": "string",
          "name": "",
          "type": "string"
        }
      ],
      "stateMutability": "view",
      "type": "function",
      "constant": true
    },
    {
      "inputs": [
        {
          "internalType": "uint256",
          "name": "tokenId",
          "type": "uint256"
        }
      ],
      "name": "tokenURI",
      "outputs": [
        {
          "internalType": "string",
          "name": "",
          "type": "string"
        }
      ],
      "stateMutability": "view",
      "type": "function",
      "constant": true
    },
    {
      "inputs": [
        {
          "internalType": "address",
          "name": "from",
          "type": "address"
        },
        {
          "internalType": "address",
          "name": "to",
          "type": "address"
        },
        {
          "internalType": "uint256",
          "name": "tokenId",
          "type": "uint256"
        }
      ],
      "name": "transferFrom",
      "outputs": [],
      "stateMutability": "nonpayable",
      "type": "function"
    },
    {
      "inputs": [
        {
          "internalType": "address",
          "name": "newOwner",
          "type": "address"
        }
      ],
      "name": "transferOwnership",
      "outputs": [],
      "stateMutability": "nonpayable",
      "type": "function"
    },
    {
      "inputs": [],
      "name": "requestNFT",
      "outputs": [
        {
          "internalType": "uint256",
          "name": "requestId",
          "type": "uint256"
        }
      ],
      "stateMutability": "payable",
      "type": "function",
      "payable": true
    },
    {
      "inputs": [],
      "name": "withdraw",
      "outputs": [],
      "stateMutability": "nonpayable",
      "type": "function"
    },
    {
      "inputs": [
        {
          "internalType": "uint256",
          "name": "index",
          "type": "uint256"
        }
      ],
      "name": "getTokenURIs",
      "outputs": [
        {
          "internalType": "string",
          "name": "",
          "type": "string"
        }
      ],
      "stateMutability": "view",
      "type": "function",
      "constant": true
    },
    {
      "inputs": [],
      "name": "getTokenCounter",
      "outputs": [
        {
          "internalType": "uint256",
          "name": "",
          "type": "uint256"
        }
      ],
      "stateMutability": "view",
      "type": "function",
      "constant": true
    }
  ],
  "bytecode": "0x61022060405260456101a081815261012091829190620025c76101c0398152602001604051806080016040528060458152602001620025826045913981526020016040518060800160405280604481526020016200253e6044913981526020016040518060800160405280604481526020016200260c6044913990526200008b90600c906004620001ca565b503480156200009957600080fd5b506040516200265038038062002650833981016040819052620000bc91620002a1565b604080518082018252600c81526b121bd9ddd85c9d1cc813919560a21b60208083019190915282518084019093526002835261048560f41b908301526001600160a01b038616608052906000620001148382620003c0565b506001620001238282620003c0565b505050620001406200013a6200017460201b60201c565b62000178565b6000600b556001600160a01b0390931660a0526001600160401b0390911660c05260e05263ffffffff16610100526200048c565b3390565b600780546001600160a01b038381166001600160a01b0319831681179093556040519116919082907f8be0079c531659141344cd1fd0a4f28419497f9722a3daafe3b4186f6b6457e090600090a35050565b82805482825590600052602060002090810192821562000215579160200282015b82811115620002155782518290620002049082620003c0565b5091602001919060010190620001eb565b506200022392915062000227565b5090565b80821115620002235760006200023e828262000248565b5060010162000227565b508054620002569062000331565b6000825580601f1062000267575050565b601f0160209004906000526020600020908101906200028791906200028a565b50565b5b808211156200022357600081556001016200028b565b60008060008060808587031215620002b857600080fd5b84516001600160a01b0381168114620002d057600080fd5b60208601519094506001600160401b0381168114620002ee57600080fd5b60408601516060870151919450925063ffffffff811681146200031057600080fd5b939692955090935050565b634e487b7160e01b600052604160045260246000fd5b600181811c908216806200034657607f821691505b6020821081036200036757634e487b7160e01b600052602260045260246000fd5b50919050565b601f821115620003bb57600081815260208120601f850160051c81016020861015620003965750805b601f850160051c820191505b81811015620003b757828155600101620003a2565b5050505b505050565b81516001600160401b03811115620003dc57620003dc6200031b565b620003f481620003ed845462000331565b846200036d565b602080601f8311600181146200042c5760008415620004135750858301515b600019600386901b1c1916600185901b178555620003b7565b600085815260208120601f198616915b828110156200045d578886015182559484019460019091019084016200043c565b50858210156200047c5787850151600019600388901b60f8161c191681555b5050505050600190811b01905550565b60805160a05160c05160e05161010051612066620004d86000396000610a10015260006109ae015260006109dd01526000610a3e015260008181610656015261069801526120666000f3fe6080604052600436106101405760003560e01c806370a08231116100b6578063a36f573b1161006f578063a36f573b1461035a578063b88d4fde14610390578063c87b56dd146103b0578063cd654232146103d0578063e985e9c51461040d578063f2fde38b1461042d57600080fd5b806370a08231146102ca578063715018a6146102ea5780637abd25d1146102ff5780638da5cb5b1461030757806395d89b4114610325578063a22cb4651461033a57600080fd5b806323b872dd1161010857806323b872dd146102165780633ccfd60b1461023657806342842e0e1461024b5780636352211e1461026b578063642241201461028b5780636e02007d146102ab57600080fd5b806301ffc9a71461014557806306fdde031461017a578063081812fc1461019c578063095ea7b3146101d45780631fe543e3146101f6575b600080fd5b34801561015157600080fd5b5061016561016036600461193f565b61044d565b60405190151581526020015b60405180910390f35b34801561018657600080fd5b5061018f610478565b60405161017191906119ac565b3480156101a857600080fd5b506101bc6101b73660046119bf565b61050a565b6040516001600160a01b039091168152602001610171565b3480156101e057600080fd5b506101f46101ef3660046119f4565b610531565b005b34801561020257600080fd5b506101f4610211366004611a65565b61064b565b34801561022257600080fd5b506101f4610231366004611b17565b6106d3565b34801561024257600080fd5b506101f4610704565b34801561025757600080fd5b506101f4610266366004611b17565b610777565b34801561027757600080fd5b506101bc6102863660046119bf565b610792565b34801561029757600080fd5b5061018f6102a63660046119bf565b6107f2565b3480156102b757600080fd5b50600b545b604051908152602001610171565b3480156102d657600080fd5b506102bc6102e5366004611b53565b6108a1565b3480156102f657600080fd5b506101f4610927565b6102bc61093b565b34801561031357600080fd5b506007546001600160a01b03166101bc565b34801561033157600080fd5b5061018f610b10565b34801561034657600080fd5b506101f4610355366004611b6e565b610b1f565b34801561036657600080fd5b506101bc6103753660046119bf565b6008602052600090815260409020546001600160a01b031681565b34801561039c57600080fd5b506101f46103ab366004611baa565b610b2a565b3480156103bc57600080fd5b5061018f6103cb3660046119bf565b610b62565b3480156103dc57600080fd5b506104006103eb366004611b53565b60096020526000908152604090205460ff1681565b6040516101719190611ca2565b34801561041957600080fd5b50610165610428366004611cb0565b610c72565b34801561043957600080fd5b506101f4610448366004611b53565b610ca0565b60006001600160e01b03198216632483248360e11b1480610472575061047282610d19565b92915050565b60606000805461048790611ce3565b80601f01602080910402602001604051908101604052809291908181526020018280546104b390611ce3565b80156105005780601f106104d557610100808354040283529160200191610500565b820191906000526020600020905b8154815290600101906020018083116104e357829003601f168201915b5050505050905090565b600061051582610d69565b506000908152600460205260409020546001600160a01b031690565b600061053c82610792565b9050806001600160a01b0316836001600160a01b0316036105ae5760405162461bcd60e51b815260206004820152602160248201527f4552433732313a20617070726f76616c20746f2063757272656e74206f776e656044820152603960f91b60648201526084015b60405180910390fd5b336001600160a01b03821614806105ca57506105ca8133610c72565b61063c5760405162461bcd60e51b815260206004820152603d60248201527f4552433732313a20617070726f76652063616c6c6572206973206e6f7420746f60448201527f6b656e206f776e6572206f7220617070726f76656420666f7220616c6c00000060648201526084016105a5565b6106468383610dc8565b505050565b336001600160a01b037f000000000000000000000000000000000000000000000000000000000000000016146106c55760405163073e64fd60e21b81523360048201526001600160a01b037f00000000000000000000000000000000000000000000000000000000000000001660248201526044016105a5565b6106cf8282610e36565b5050565b6106dd3382611037565b6106f95760405162461bcd60e51b81526004016105a590611d1d565b610646838383611095565b61070c6111f9565b6040514790600090339083908381818185875af1925050503d8060008114610750576040519150601f19603f3d011682016040523d82523d6000602084013e610755565b606091505b50509050806106cf57604051631244a7b360e01b815260040160405180910390fd5b61064683838360405180602001604052806000815250610b2a565b6000818152600260205260408120546001600160a01b0316806104725760405162461bcd60e51b8152602060048201526018602482015277115490cdcc8c4e881a5b9d985b1a59081d1bdad95b88125160421b60448201526064016105a5565b6060600c828154811061080757610807611d6a565b90600052602060002001805461081c90611ce3565b80601f016020809104026020016040519081016040528092919081815260200182805461084890611ce3565b80156108955780601f1061086a57610100808354040283529160200191610895565b820191906000526020600020905b81548152906001019060200180831161087857829003601f168201915b50505050509050919050565b60006001600160a01b03821661090b5760405162461bcd60e51b815260206004820152602960248201527f4552433732313a2061646472657373207a65726f206973206e6f7420612076616044820152683634b21037bbb732b960b91b60648201526084016105a5565b506001600160a01b031660009081526003602052604090205490565b61092f6111f9565b6109396000611253565b565b336000908152600a602052604081205460ff16151560010361099f5760405162461bcd60e51b815260206004820152601a60248201527f596f752061726520616c726561647920696e206120686f75736500000000000060448201526064016105a5565b6040516305d3b1d360e41b81527f0000000000000000000000000000000000000000000000000000000000000000600482015267ffffffffffffffff7f00000000000000000000000000000000000000000000000000000000000000001660248201526003604482015263ffffffff7f0000000000000000000000000000000000000000000000000000000000000000166064820152600160848201527f00000000000000000000000000000000000000000000000000000000000000006001600160a01b031690635d3b1d309060a4016020604051808303816000875af1158015610a8f573d6000803e3d6000fd5b505050506040513d601f19601f82011682018060405250810190610ab39190611d80565b60008181526008602090815260409182902080546001600160a01b03191633908117909155915191825291925082917ff873236e6cc0ecc5be1a9a35c95ee5b8d1ac4cc7bfef0cc5060391d6cc98e26b910160405180910390a290565b60606001805461048790611ce3565b6106cf3383836112a5565b610b343383611037565b610b505760405162461bcd60e51b81526004016105a590611d1d565b610b5c84848484611373565b50505050565b6060610b6d82610d69565b60008281526006602052604081208054610b8690611ce3565b80601f0160208091040260200160405190810160405280929190818152602001828054610bb290611ce3565b8015610bff5780601f10610bd457610100808354040283529160200191610bff565b820191906000526020600020905b815481529060010190602001808311610be257829003601f168201915b505050505090506000610c1d60408051602081019091526000815290565b90508051600003610c2f575092915050565b815115610c61578082604051602001610c49929190611d99565b60405160208183030381529060405292505050919050565b610c6a846113a6565b949350505050565b6001600160a01b03918216600090815260056020908152604080832093909416825291909152205460ff1690565b610ca86111f9565b6001600160a01b038116610d0d5760405162461bcd60e51b815260206004820152602660248201527f4f776e61626c653a206e6577206f776e657220697320746865207a65726f206160448201526564647265737360d01b60648201526084016105a5565b610d1681611253565b50565b60006001600160e01b031982166380ac58cd60e01b1480610d4a57506001600160e01b03198216635b5e139f60e01b145b8061047257506301ffc9a760e01b6001600160e01b0319831614610472565b6000818152600260205260409020546001600160a01b0316610d165760405162461bcd60e51b8152602060048201526018602482015277115490cdcc8c4e881a5b9d985b1a59081d1bdad95b88125160421b60448201526064016105a5565b600081815260046020526040902080546001600160a01b0319166001600160a01b0384169081179091558190610dfd82610792565b6001600160a01b03167f8c5be1e5ebec7d5bd14f71427d1e84f3dd0314c0f7b2291e5b200ac8c7c3b92560405160405180910390a45050565b600082815260086020526040812054600b5483516001600160a01b0390921692909160049085908390610e6b57610e6b611d6a565b6020026020010151610e7d9190611dc8565b90506000816003811115610e9357610e93611c6a565b6000878152600860209081526040808320546001600160a01b031680845260099092529091208054929350909183919060ff19166001836003811115610edb57610edb611c6a565b0217905550610eea858561141a565b610faa84600c846003811115610f0257610f02611c6a565b81548110610f1257610f12611d6a565b906000526020600020018054610f2790611ce3565b80601f0160208091040260200160405190810160405280929190818152602001828054610f5390611ce3565b8015610fa05780601f10610f7557610100808354040283529160200191610fa0565b820191906000526020600020905b815481529060010190602001808311610f8357829003601f168201915b5050505050611434565b6000878152600860209081526040808320546001600160a01b03168352600a9091528120805460ff19166001908117909155600b805491929091610fef908490611dea565b90915550506040517f8a269f26b688e110e9cbd887d163dab35cae678fa353a0292de532c0cac1ecdc906110269084908890611e0b565b60405180910390a150505050505050565b60008061104383610792565b9050806001600160a01b0316846001600160a01b0316148061106a575061106a8185610c72565b80610c6a5750836001600160a01b03166110838461050a565b6001600160a01b031614949350505050565b826001600160a01b03166110a882610792565b6001600160a01b0316146110ce5760405162461bcd60e51b81526004016105a590611e31565b6001600160a01b0382166111305760405162461bcd60e51b8152602060048201526024808201527f4552433732313a207472616e7366657220746f20746865207a65726f206164646044820152637265737360e01b60648201526084016105a5565b826001600160a01b031661114382610792565b6001600160a01b0316146111695760405162461bcd60e51b81526004016105a590611e31565b600081815260046020908152604080832080546001600160a01b03199081169091556001600160a01b0387811680865260038552838620805460001901905590871680865283862080546001019055868652600290945282852080549092168417909155905184937fddf252ad1be2c89b69c2b068fc378daa952ba7f163c4a11628f55a4df523b3ef91a4505050565b6007546001600160a01b031633146109395760405162461bcd60e51b815260206004820181905260248201527f4f776e61626c653a2063616c6c6572206973206e6f7420746865206f776e657260448201526064016105a5565b600780546001600160a01b038381166001600160a01b0319831681179093556040519116919082907f8be0079c531659141344cd1fd0a4f28419497f9722a3daafe3b4186f6b6457e090600090a35050565b816001600160a01b0316836001600160a01b0316036113065760405162461bcd60e51b815260206004820152601960248201527f4552433732313a20617070726f766520746f2063616c6c65720000000000000060448201526064016105a5565b6001600160a01b03838116600081815260056020908152604080832094871680845294825291829020805460ff191686151590811790915591519182527f17307eab39ab6107e8899845ad3d59bd9653f200f220920489ca2b5937696c31910160405180910390a3505050565b61137e848484611095565b61138a848484846114ff565b610b5c5760405162461bcd60e51b81526004016105a590611e76565b60606113b182610d69565b60006113c860408051602081019091526000815290565b905060008151116113e85760405180602001604052806000815250611413565b806113f284611600565b604051602001611403929190611d99565b6040516020818303038152906040525b9392505050565b6106cf828260405180602001604052806000815250611693565b6000828152600260205260409020546001600160a01b03166114af5760405162461bcd60e51b815260206004820152602e60248201527f45524337323155524953746f726167653a2055524920736574206f66206e6f6e60448201526d32bc34b9ba32b73a103a37b5b2b760911b60648201526084016105a5565b60008281526006602052604090206114c78282611f16565b506040518281527ff8e1a15aba9398e019f0b49df1a4fde98ee17ae345cb5f6b5e2c27f5033e8ce79060200160405180910390a15050565b60006001600160a01b0384163b156115f557604051630a85bd0160e11b81526001600160a01b0385169063150b7a0290611543903390899088908890600401611fd6565b6020604051808303816000875af192505050801561157e575060408051601f3d908101601f1916820190925261157b91810190612013565b60015b6115db573d8080156115ac576040519150601f19603f3d011682016040523d82523d6000602084013e6115b1565b606091505b5080516000036115d35760405162461bcd60e51b81526004016105a590611e76565b805181602001fd5b6001600160e01b031916630a85bd0160e11b149050610c6a565b506001949350505050565b6060600061160d836116c6565b600101905060008167ffffffffffffffff81111561162d5761162d611a1e565b6040519080825280601f01601f191660200182016040528015611657576020820181803683370190505b5090508181016020015b600019016f181899199a1a9b1b9c1cb0b131b232b360811b600a86061a8153600a850494508461166157509392505050565b61169d838361179e565b6116aa60008484846114ff565b6106465760405162461bcd60e51b81526004016105a590611e76565b60008072184f03e93ff9f4daa797ed6e38ed64bf6a1f0160401b83106117055772184f03e93ff9f4daa797ed6e38ed64bf6a1f0160401b830492506040015b6d04ee2d6d415b85acef81000000008310611731576d04ee2d6d415b85acef8100000000830492506020015b662386f26fc10000831061174f57662386f26fc10000830492506010015b6305f5e1008310611767576305f5e100830492506008015b612710831061177b57612710830492506004015b6064831061178d576064830492506002015b600a83106104725760010192915050565b6001600160a01b0382166117f45760405162461bcd60e51b815260206004820181905260248201527f4552433732313a206d696e7420746f20746865207a65726f206164647265737360448201526064016105a5565b6000818152600260205260409020546001600160a01b0316156118595760405162461bcd60e51b815260206004820152601c60248201527f4552433732313a20746f6b656e20616c7265616479206d696e7465640000000060448201526064016105a5565b6000818152600260205260409020546001600160a01b0316156118be5760405162461bcd60e51b815260206004820152601c60248201527f4552433732313a20746f6b656e20616c7265616479206d696e7465640000000060448201526064016105a5565b6001600160a01b038216600081815260036020908152604080832080546001019055848352600290915280822080546001600160a01b0319168417905551839291907fddf252ad1be2c89b69c2b068fc378daa952ba7f163c4a11628f55a4df523b3ef908290a45050565b6001600160e01b031981168114610d1657600080fd5b60006020828403121561195157600080fd5b813561141381611929565b60005b8381101561197757818101518382015260200161195f565b50506000910152565b6000815180845261199881602086016020860161195c565b601f01601f19169290920160200192915050565b6020815260006114136020830184611980565b6000602082840312156119d157600080fd5b5035919050565b80356001600160a01b03811681146119ef57600080fd5b919050565b60008060408385031215611a0757600080fd5b611a10836119d8565b946020939093013593505050565b634e487b7160e01b600052604160045260246000fd5b604051601f8201601f1916810167ffffffffffffffff81118282101715611a5d57611a5d611a1e565b604052919050565b60008060408385031215611a7857600080fd5b8235915060208084013567ffffffffffffffff80821115611a9857600080fd5b818601915086601f830112611aac57600080fd5b813581811115611abe57611abe611a1e565b8060051b9150611acf848301611a34565b8181529183018401918481019089841115611ae957600080fd5b938501935b83851015611b0757843582529385019390850190611aee565b8096505050505050509250929050565b600080600060608486031215611b2c57600080fd5b611b35846119d8565b9250611b43602085016119d8565b9150604084013590509250925092565b600060208284031215611b6557600080fd5b611413826119d8565b60008060408385031215611b8157600080fd5b611b8a836119d8565b915060208301358015158114611b9f57600080fd5b809150509250929050565b60008060008060808587031215611bc057600080fd5b611bc9856119d8565b93506020611bd88187016119d8565b935060408601359250606086013567ffffffffffffffff80821115611bfc57600080fd5b818801915088601f830112611c1057600080fd5b813581811115611c2257611c22611a1e565b611c34601f8201601f19168501611a34565b91508082528984828501011115611c4a57600080fd5b808484018584013760008482840101525080935050505092959194509250565b634e487b7160e01b600052602160045260246000fd5b60048110611c9e57634e487b7160e01b600052602160045260246000fd5b9052565b602081016104728284611c80565b60008060408385031215611cc357600080fd5b611ccc836119d8565b9150611cda602084016119d8565b90509250929050565b600181811c90821680611cf757607f821691505b602082108103611d1757634e487b7160e01b600052602260045260246000fd5b50919050565b6020808252602d908201527f4552433732313a2063616c6c6572206973206e6f7420746f6b656e206f776e6560408201526c1c881bdc88185c1c1c9bdd9959609a1b606082015260800190565b634e487b7160e01b600052603260045260246000fd5b600060208284031215611d9257600080fd5b5051919050565b60008351611dab81846020880161195c565b835190830190611dbf81836020880161195c565b01949350505050565b600082611de557634e487b7160e01b600052601260045260246000fd5b500690565b8082018082111561047257634e487b7160e01b600052601160045260246000fd5b60408101611e198285611c80565b6001600160a01b039290921660209190910152919050565b60208082526025908201527f4552433732313a207472616e736665722066726f6d20696e636f72726563742060408201526437bbb732b960d91b606082015260800190565b60208082526032908201527f4552433732313a207472616e7366657220746f206e6f6e20455243373231526560408201527131b2b4bb32b91034b6b83632b6b2b73a32b960711b606082015260800190565b601f82111561064657600081815260208120601f850160051c81016020861015611eef5750805b601f850160051c820191505b81811015611f0e57828155600101611efb565b505050505050565b815167ffffffffffffffff811115611f3057611f30611a1e565b611f4481611f3e8454611ce3565b84611ec8565b602080601f831160018114611f795760008415611f615750858301515b600019600386901b1c1916600185901b178555611f0e565b600085815260208120601f198616915b82811015611fa857888601518255948401946001909101908401611f89565b5085821015611fc65787850151600019600388901b60f8161c191681555b5050505050600190811b01905550565b6001600160a01b038581168252841660208201526040810183905260806060820181905260009061200990830184611980565b9695505050505050565b60006020828403121561202557600080fd5b81516114138161192956fea2646970667358221220c37ec4132539010a09cc7e9d8d755195695ba0392a7d6d5abcf551e85855168464736f6c63430008150033697066733a2f2f516d586a613251424b734e5739716e77396b4b66636d3235724a546f6d7741564a557258656b59464a6e567762672f526176656e636c61772e6a736f6e697066733a2f2f516d586a613251424b734e5739716e77396b4b66636d3235724a546f6d7741564a557258656b59464a6e567762672f487566666c65707566662e6a736f6e697066733a2f2f516d586a613251424b734e5739716e77396b4b66636d3235724a546f6d7741564a557258656b59464a6e567762672f4772796666696e646f722e6a736f6e697066733a2f2f516d586a613251424b734e5739716e77396b4b66636d3235724a546f6d7741564a557258656b59464a6e567762672f536c7974686572696e2e6a736f6e",
  "immutableReferences": {
    "10": [
      {
        "length": 32,
        "start": 1622
      },
      {
        "length": 32,
        "start": 1688
      }
    ],
    "3171": [
      {
        "length": 32,
        "start": 2622
      }
    ],
    "3173": [
      {
        "length": 32,
        "start": 2525
      }
    ],
    "3175": [
      {
        "length": 32,
        "start": 2478
      }
    ],
    "3180": [
      {
        "length": 32,
        "start": 2576
      }
    ]
  },
  "source": "// SPDX-License-Identifier: MIT\r\n\r\npragma solidity ^0.8.8;\r\n\r\nimport \"@openzeppelin/contracts/token/ERC721/extensions/ERC721URIStorage.sol\";\r\nimport \"@openzeppelin/contracts/access/Ownable.sol\";\r\nimport \"@chainlink/contracts/src/v0.8/interfaces/VRFCoordinatorV2Interface.sol\";\r\nimport \"@chainlink/contracts/src/v0.8/VRFConsumerBaseV2.sol\";\r\n\r\nerror HogwartsNFT__WithdrawalFailed();\r\n\r\ncontract HogwartsNFT is VRFConsumerBaseV2, ERC721URIStorage, Ownable {\r\n    // NFT variables\r\n    mapping(uint256 => address) public s_requestIdToSender; // a mapping from requestId to the address that made that request\r\n    mapping(address => House) public s_addressToHouse; // new mapping to map address to the house they got\r\n    mapping(address => bool) private s_minted; // mapping a boolean to the address if they have already minted the NFT\r\n\r\n\r\n    uint256 private s_tokenCounter;\r\n    string[] internal houseTokenURIs = [\r\n        \"ipfs://QmXja2QBKsNW9qnw9kKfcm25rJTomwAVJUrXekYFJnVwbg/Gryffindor.json\",\r\n        \"ipfs://QmXja2QBKsNW9qnw9kKfcm25rJTomwAVJUrXekYFJnVwbg/Hufflepuff.json\",\r\n        \"ipfs://QmXja2QBKsNW9qnw9kKfcm25rJTomwAVJUrXekYFJnVwbg/Ravenclaw.json\",\r\n        \"ipfs://QmXja2QBKsNW9qnw9kKfcm25rJTomwAVJUrXekYFJnVwbg/Slytherin.json\"\r\n    ]; // [Gryffindor, Hufflepuff, Ravenclaw, Slytherin]\r\n\r\n    enum House {\r\n        Gryffindor, // 0th item\r\n        Hufflepuff, // 1st item\r\n        Ravenclaw, // 2nd item\r\n        Slytherin // 3rd item\r\n    }\r\n\r\n    // Chainlink VRF variables\r\n    VRFCoordinatorV2Interface private immutable i_vrfCoordinator;\r\n    uint64 private immutable i_subscriptionId; // get subscription ID from vrf.chain.link\r\n    bytes32 private immutable i_keyHash;\r\n    uint16 private constant REQUEST_CONFIRMATIONS = 3;\r\n    uint32 private immutable i_callbackGasLimit;\r\n    uint32 private constant NUM_WORDS = 1;\r\n\r\n    // Events\r\n    event NftRequested(uint256 indexed requestId, address requester);\r\n    event NftMinted(House house, address minter);\r\n    event AlreadyMinted(bool s_minted, House house);\r\n\r\n    constructor(\r\n        address vrfCoordinatorV2Address,\r\n        uint64 subId,\r\n        bytes32 keyHash,\r\n        uint32 callbackGasLimit\r\n    )\r\n        VRFConsumerBaseV2(vrfCoordinatorV2Address)\r\n        ERC721(\"Hogwarts NFT\", \"HP\")\r\n    {\r\n        s_tokenCounter = 0;\r\n\r\n        // VRF variables \r\n        i_vrfCoordinator = VRFCoordinatorV2Interface(vrfCoordinatorV2Address);\r\n        i_subscriptionId = subId;\r\n        i_keyHash = keyHash;\r\n        i_callbackGasLimit = callbackGasLimit;\r\n    }\r\n\r\n    function requestNFT() public payable returns (uint256 requestId) {\r\n        \r\n        // Check if user has already minted an NFT\r\n        if (s_minted[msg.sender] == true) {\r\n            revert(\"You are already in a house\");\r\n        }\r\n\r\n        requestId = i_vrfCoordinator.requestRandomWords(\r\n            i_keyHash, \r\n            i_subscriptionId,\r\n            REQUEST_CONFIRMATIONS,\r\n            i_callbackGasLimit,\r\n            NUM_WORDS\r\n        ); \r\n\r\n        s_requestIdToSender[requestId] = msg.sender; // map the caller to their respective requestIDs.\r\n\r\n        // emit an event\r\n        emit NftRequested(requestId, msg.sender);\r\n    }\r\n\r\n    function fulfillRandomWords(uint256 requestId, uint256[] memory randomWords) internal override\r\n    {\r\n        // Step 1 - figure out nftOwner\r\n        address nftOwner = s_requestIdToSender[requestId]; // map the requestId to whoever sent the request for Randomness\r\n\r\n        // Step 2 - mint the NFT\r\n        uint256 tokenId = s_tokenCounter; // assign unique tokenId\r\n\r\n        //select a house based on the random number\r\n        uint256 randomNumber = (randomWords[0] % 4); // get a random number between 0 - 4 \r\n\r\n        House house = House(randomNumber); // select a house\r\n\r\n        //Map the house to the address of the requester\r\n        address sender = s_requestIdToSender[requestId];\r\n        s_addressToHouse[sender] = house;\r\n\r\n        _safeMint(nftOwner, tokenId); // finally, mint the NFT using _safeMint function\r\n\r\n        // set Token URI of that particular NFT\r\n        _setTokenURI(tokenId, houseTokenURIs[uint256(house)]); // takes tokenID and tokenURI\r\n\r\n        s_minted[s_requestIdToSender[requestId]] = true; // Mark user as having minted an NFT\r\n\r\n        s_tokenCounter += 1; // increment the token count\r\n\r\n        // emit event\r\n        emit NftMinted(house, nftOwner);\r\n    }\r\n\r\n    function withdraw() public onlyOwner {\r\n        uint256 amount = address(this).balance;\r\n        (bool success, ) = payable(msg.sender).call{value: amount}(\"\");\r\n\r\n        if (!success) {\r\n            revert HogwartsNFT__WithdrawalFailed();\r\n        }\r\n    }\r\n\r\n    // View Functions\r\n\r\n    function getTokenURIs(uint256 index) public view returns (string memory) {\r\n        return houseTokenURIs[index];\r\n    }\r\n\r\n    function getTokenCounter() public view returns (uint256) {\r\n        return s_tokenCounter;\r\n    }\r\n}",
  "sourcePath": "C:\\Users\\aswin\\hogwarts-dapp\\contracts\\HogwartsNFT.sol",
  "compiler": {
    "name": "solc",
    "version": "0.8.21+commit.d9974bed.Emscripten.clang"
  },
  "schemaVersion": "3.4.14",
  "updatedAt": "2023-08-03T17:12:09.296Z",
  "networkType": "ethereum",
  "devdoc": {
    "events": {
      "Approval(address,address,uint256)": {
        "details": "Emitted when `owner` enables `approved` to manage the `tokenId` token."
      },
      "ApprovalForAll(address,address,bool)": {
        "details": "Emitted when `owner` enables or disables (`approved`) `operator` to manage all of its assets."
      },
      "BatchMetadataUpdate(uint256,uint256)": {
        "details": "This event emits when the metadata of a range of tokens is changed. So that the third-party platforms such as NFT market could timely update the images and related attributes of the NFTs."
      },
      "MetadataUpdate(uint256)": {
        "details": "This event emits when the metadata of a token is changed. So that the third-party platforms such as NFT market could timely update the images and related attributes of the NFT."
      },
      "Transfer(address,address,uint256)": {
        "details": "Emitted when `tokenId` token is transferred from `from` to `to`."
      }
    },
    "kind": "dev",
    "methods": {
      "approve(address,uint256)": {
        "details": "See {IERC721-approve}."
      },
      "balanceOf(address)": {
        "details": "See {IERC721-balanceOf}."
      },
      "getApproved(uint256)": {
        "details": "See {IERC721-getApproved}."
      },
      "isApprovedForAll(address,address)": {
        "details": "See {IERC721-isApprovedForAll}."
      },
      "name()": {
        "details": "See {IERC721Metadata-name}."
      },
      "owner()": {
        "details": "Returns the address of the current owner."
      },
      "ownerOf(uint256)": {
        "details": "See {IERC721-ownerOf}."
      },
      "renounceOwnership()": {
        "details": "Leaves the contract without owner. It will not be possible to call `onlyOwner` functions. Can only be called by the current owner. NOTE: Renouncing ownership will leave the contract without an owner, thereby disabling any functionality that is only available to the owner."
      },
      "safeTransferFrom(address,address,uint256)": {
        "details": "See {IERC721-safeTransferFrom}."
      },
      "safeTransferFrom(address,address,uint256,bytes)": {
        "details": "See {IERC721-safeTransferFrom}."
      },
      "setApprovalForAll(address,bool)": {
        "details": "See {IERC721-setApprovalForAll}."
      },
      "supportsInterface(bytes4)": {
        "details": "See {IERC165-supportsInterface}"
      },
      "symbol()": {
        "details": "See {IERC721Metadata-symbol}."
      },
      "tokenURI(uint256)": {
        "details": "See {IERC721Metadata-tokenURI}."
      },
      "transferFrom(address,address,uint256)": {
        "details": "See {IERC721-transferFrom}."
      },
      "transferOwnership(address)": {
        "details": "Transfers ownership of the contract to a new account (`newOwner`). Can only be called by the current owner."
      }
    },
    "version": 1
  },
  "userdoc": {
    "kind": "user",
    "methods": {},
    "version": 1
  }
}